:020000040800F2
:10000000C80600206D02000875020008770200088B
:10001000790200087B0200087D0200080000000051
:100020000000000000000000000000007F02000847
:100030008102000800000000830200088502000819
:10004000870200088702000887020008870200086C
:10005000870200088702000887020008870200085C
:10006000870200088702000887020008870200084C
:10007000870200088702000887020008870200083C
:10008000870200088702000887020008870200082C
:10009000870200088702000887020008870200081C
:1000A000870200088702000887020008870200080C
:1000B00087020008870200088702000887020008FC
:1000C00087020008870200088702000887020008EC
:1000D00087020008870200088702000887020008DC
:1000E00087020008870200088702000887020008CC
:1000F00087020008870200088702000887020008BC
:1001000087020008870200088702000887020008AB
:10011000870200088702000887020008870200089B
:10012000870200088702000887020008870200088B
:10013000870200080000000000000000870200089D
:10014000870200088702000887020008870200086B
:10015000870200088702000887020008870200085B
:10016000870200088702000887020008870200084B
:1001700087020008870200088702000800000000CC
:1001800000000000870200080000000000000000DE
:10019000870200080000000000000000870200083D
:1001A00000000000000000000000000087020008BE
:1001B00087020008870200088702000887020008FB
:1001C0008702000800F002F800F041F80AA090E869
:1001D000000C82448344AAF10107DA4501D100F002
:1001E00036F8AFF2090EBAE80F0013F0010F18BF8E
:1001F000FB1A43F00103184780040000A00400002C
:10020000103A24BF78C878C1FAD8520724BF30C842
:1002100030C144BF04680C60704700000023002414
:1002200000250026103A28BF78C1FBD8520728BF06
:1002300030C148BF0B607047642900F07F80002008
:1002400070471FB500F012FA1FBD10B510BD00F0C9
:100250004AF91146FFF7F5FF00F0C6F900F068F91A
:1002600003B4FFF7F2FF03BC00F070F909488047C0
:1002700009480047FEE7FEE7FEE7FEE7FEE7FEE788
:10028000FEE7FEE7FEE7FEE704480549054A064BA0
:10029000704700005D050008C5010008C800002087
:1002A000C8060020C8020020C80200200FB41CB5F8
:1002B000074B06AA7B4469460090059800F0FBF8BE
:1002C0000020694600F00AF91CBC5DF814FB000030
:1002D000250200002DE9F0410E4604460020206270
:1002E0002046E168884730B3252805D0D4E90121AC
:1002F0009047206A401CF2E7E168204600278847C3
:10030000050018D0A5F14100192802D820354FF476
:1003100000673246294620462760FFF78DFF40B12F
:10032000012804D0F61D26F007060836D8E7361D4A
:10033000D6E72846DAE7206ABDE8F0812DE9F041EA
:100340000646002410687529314616A510D0AFF373
:100350000080002802DA404213A507E031688A07CE
:1003600001D512A502E0490704D511A5012401E039
:10037000AFF3008000210A2206F1240709E0B0FB58
:10038000F2FCB0FBF2F302FB1C003030785418464C
:10039000491C0028F3D123462A463046BDE8F041E7
:1003A00000F02AB8000000002D0000002B00000023
:1003B0002000000010B5431C02E010F8011B71B1D1
:1003C0008107FAD14FF0013202C88C1A8C4314EA2B
:1003D000C211F9D0C01A0A0603D0C01E10BDC01A3F
:1003E00010BD0A0401D0801E10BD0902FCD0401EC1
:1003F00010BD7047704770472DE9F0470D4699468C
:100400009246044600F124080168880604D5E06994
:1004100021F01001216000E00120A84201DD471B0E
:1004200000E00027A1697A1902EB0900081AA0610F
:100430002078C00602D42046AFF30080002608E0F2
:10044000D4E901211AF806009047206A401C761C66
:1004500020624E45F4DB2078C0060AD52046AFF373
:10046000008006E0D4E9012130209047206A401C3A
:100470002062381EA7F10107F4DC07E0D4E901216E
:1004800018F805009047206A401C2062281EA5F13C
:100490000105F3DC2046AFF300802078000602D58A
:1004A0000220BDE8F0870120FBE7000001694A1C3B
:1004B00002610878704700B58FB0CDE901310021A5
:1004C000059105497944CDE9031011466846FFF7C7
:1004D00001FF0FB000BD0000E5FFFFFF0A6802F852
:1004E000010B0A607047754600F02CF8AE46050017
:1004F0006946534620F00700854618B020B5FFF73F
:10050000C3FEBDE820404FF000064FF000074FF05B
:1005100000084FF0000B21F00701AC46ACE8C00921
:10052000ACE8C009ACE8C009ACE8C0098D4670472A
:1005300010B50446AFF300802046BDE81040FFF739
:100540008FBE000000487047680000200149182055
:10055000ABBEFEE7260002007047000005480068B9
:1005600040F47000034908604FF000600149803991
:100570000860704788ED00E01148006840F40030E2
:100580000F4908600E481038006840F001000C491F
:10059000103908604FF4E0600A49086208460068B4
:1005A00040F02000086040F283600749086008209E
:1005B000091D08600846006840F400500860704754
:1005C00040380240000002400844004000BF054996
:1005D000096801F080010029F9D0C1B2014A121D59
:1005E0001160704700440040FFF7C6FF0020194922
:1005F00008700AE01849174A1278885CFFF7E6FF8E
:1006000014480078401C134908701348FFF7D2FEC5
:10061000104909788842EDD81AE0104A10A1124812
:10062000FFF744FE00200B4908700AE00E49094A12
:100630001278885CFFF7CAFF06480078401C05491D
:1006400008700948FFF7B6FE024909788842EDD8DC
:10065000E3E70000320000200000002020732300A8
:1006600025640D0A00000000340000204FF04070A7
:10067000E1EE100A70470000980600080000002014
:100680003400000000020008CC06000834000020FE
:10069000940600001C0200085375617973682053AA
:1006A000616E6A61792057616C6B756E6465200DAF
:1006B0000A00000000000000000000000000000030
:0C06C0000000000000000000000000002E
:040000050800026D80
:00000001FF
